:100000000C942A000C948A090C94BD090C94F009F4
:100010000C9447000C9447000C9447000C94470044
:100020000C9447000C9447000C9447000C94470034
:100030000C9447000C9447000C9447000C94470024
:100040000C9447000C9447000C9447000C94470014
:100050000C94470011241FBECFE5D8E0DEBFCDBF12
:1000600011E0A0E6B0E0E0E5FAE502C005900D92EF
:10007000A43DB107D9F711E0A4EDB1E001C01D9294
:10008000AA3DB107E1F70E94932C0C94262D0C9405
:100090000000EF92FF920F931F937B018C0120E0F1
:1000A00030E040E05FE40E94490388238CF0C801FF
:1000B000B70120E030E040E05FE40E94C1010E940F
:1000C000A9039B01AC01205030404040504806C07D
:1000D000C801B7010E94A9039B01AC01B901CA0183
:1000E0001F910F91FF90EF900895A0E0B0E0EBE733
:1000F000F0E00C94EF2CDC012B01FA019C91923082
:1001000008F439C1EB018881823008F433C194309E
:1001100069F4843009F02FC111969C91119789815F
:10012000981709F428C1A0E6B0E025C1843009F48D
:1001300021C18230A9F4923009F01DC19A01AD01AC
:1001400088E0EA010990AE01E90109929E0181501F
:10015000C1F7E201898111969C918923818308C1AD
:10016000923009F407C112962D903C901397EB0141
:100170008A819B811496AD90BD90CD90DC901797AD
:10018000EC80FD800E811F819101281B390BB90184
:1001900037FF04C066277727621B730B6032710537
:1001A0000CF061C0121613066CF537014801062EDB
:1001B00004C096948794779467940A94D2F721E0C8
:1001C00030E040E050E004C0220F331F441F551FB1
:1001D0006A95D2F721503040404050402E213F21B7
:1001E00040235123211531054105510521F021E01E
:1001F00030E040E050E079018A01E628F72808293C
:1002000019293CC0232BD1F1260E371E350146019A
:10021000062E04C096948794779467940A94D2F734
:1002200021E030E040E050E004C0220F331F441FC3
:10023000551F6A95D2F721503040404050402A2146
:100240003B214C215D21211531054105510521F04E
:1002500021E030E040E050E059016A01A628B728CB
:10026000C828D9280BC0821593052CF01C01AA249C
:10027000BB24650103C0EE24FF24870111969C91E5
:10028000D20111968C91981709F445C0992339F041
:10029000A80197012A193B094C095D0906C0A6016E
:1002A00095012E193F09400B510B57FD08C01182D3
:1002B0003382228224833583468357831DC081E0A5
:1002C00081833382228288279927DC01821B930B4A
:1002D000A40BB50B84839583A683B7830DC0220F2F
:1002E000331F441F551F24833583468357838281E0
:1002F000938101979383828324813581468157813D
:10030000DA01C9010197A109B1098F5F9F4FAF4F72
:10031000BF4328F30BC0918333822282EA0CFB1C7B
:100320000C1D1D1DE482F5820683178383E0808304
:10033000248135814681578157FF1AC0C901AA27F8
:1003400097FDA095BA2F81709070A070B0705695EF
:10035000479537952795822B932BA42BB52B848318
:100360009583A683B7838281938101969383828349
:10037000DF0101C0D201CD01CDB7DEB7E2E10C94BF
:100380000B2DA0E2B0E0E7ECF1E00C94FB2C6983CC
:100390007A838B839C832D833E834F835887E9E048
:1003A000EE2EF12CEC0EFD1ECE010196B7010E943F
:1003B0009A058E010F5E1F4FCE010596B8010E946F
:1003C0009A058A8991E089278A8BC701B801AE0115
:1003D000475E5F4F0E9475000E94C504A096E6E04C
:1003E0000C94172DA0E2B0E0E8EFF1E00C94FB2CA8
:1003F00069837A838B839C832D833E834F835887C5
:10040000F9E0EF2EF12CEC0EFD1ECE010196B701A6
:100410000E949A058E010F5E1F4FCE010596B8010E
:100420000E949A05C701B801AE01475E5F4F0E9466
:1004300075000E94C504A096E6E00C94172DA0E27A
:10044000B0E0E5E2F2E00C94EF2C69837A838B83D1
:100450009C832D833E834F835887CE010196BE0136
:10046000675F7F4F0E949A05CE010596BE016F5EC1
:100470007F4F0E949A059985923088F08989823051
:10048000C8F0943019F4823051F404C0843029F457
:10049000923081F480E690E0C6C0923049F420E0CA
:1004A0009A858A89981321E02A87CE010996BBC0D4
:1004B000823049F420E09A858A89981321E02A8BBA
:1004C000CE014196B0C02D843E844F8458886D88FB
:1004D0007E888F88988CEE24FF248701AA24BB2471
:1004E000650140E050E060E070E0E0E0F0E0C10174
:1004F00081709070892BE9F0E60CF71C081D191D1E
:100500009A01AB012A0D3B1D4C1D5D1D80E090E062
:10051000A0E0B0E0E614F7040805190520F481E036
:1005200090E0A0E0B0E0BA01A901480F591F6A1F8E
:100530007B1FAA0CBB1CCC1CDD1C97FE08C081E0F5
:1005400090E0A0E0B0E0A82AB92ACA2ADB2A3196B6
:10055000E032F10549F0660C771C881C991C569412
:10056000479437942794C3CFFA85EA892B893C892D
:100570008B859C85280F391F2E5F3F4F17C0CA01FE
:1005800081709070892B61F016950795F794E79428
:1005900080E090E0A0E0B0E8E82AF92A0A2B1B2BC3
:1005A00076956795579547952F5F3F4F77FDE7CF36
:1005B0000CC0440F551F661F771F17FD4160EE0CDE
:1005C000FF1C001F111F21503040403090E05907A0
:1005D00090E0690790E4790760F32B8F3C8FDB0193
:1005E000CA018F779070A070B07080349105A1051A
:1005F000B10561F447FD0AC0E114F10401051105DC
:1006000029F0405C5F4F6F4F7F4F40781A8EFE1786
:1006100011F081E08A8F4D8F5E8F6F8F78A383E01A
:10062000898FCE0149960E94C504A096E2E10C9400
:100630000B2DA8E1B0E0EFE1F3E00C94FB2C698313
:100640007A838B839C832D833E834F83588789E0F5
:10065000E82EF12CEC0EFD1ECE010196B7010E9492
:100660009A058E010F5E1F4FCE010596B8010E94BC
:100670009A058985823040F08989823028F0C70147
:10068000B8010E94120601C08FEF6896E6E00C9454
:10069000172DA8E1B0E0EFE4F3E00C94FB2C6983A4
:1006A0007A838B839C832D833E834F83588789E095
:1006B000E82EF12CEC0EFD1ECE010196B7010E9432
:1006C0009A058E010F5E1F4FCE010596B8010E945C
:1006D0009A058985823040F08989823028F0C701E7
:1006E000B8010E94120601C08FEF6896E6E00C94F4
:1006F000172DA8E1B0E0EFE7F3E00C94FB2C698341
:100700007A838B839C832D833E834F83588789E034
:10071000E82EF12CEC0EFD1ECE010196B7010E94D1
:100720009A058E010F5E1F4FCE010596B8010E94FB
:100730009A058985823040F08989823028F0C70186
:10074000B8010E94120601C081E06896E6E00C94B0
:10075000172DACE0B0E0EFEAF3E00C94FF2C6983D6
:100760007A838B839C83CE010196BE016B5F7F4FA2
:100770000E949A058D81823061F1823050F184307F
:1007800021F48E81882351F12EC02F81388537FDC9
:1007900020C06E812F3131051CF06623F9F023C093
:1007A0008EE190E0821B930B29853A854B855C8511
:1007B00004C056954795379527958A95D2F76623B5
:1007C000B1F050954095309521953F4F4F4F5F4F79
:1007D0000EC020E030E040E050E009C02FEF3FEFD6
:1007E0004FEF5FE704C020E030E040E050E8B9019F
:1007F000CA012C96E2E00C941B2DA8E0B0E0E3E0E7
:10080000F4E00C94F72C7B018C01611571058105D6
:10081000910519F482E0898360C083E089838EE1C9
:10082000C82ED12CDC82CB82ED82FE820F8318870A
:10083000C801B7010E947604FC013197F7FF3BC065
:10084000222733272E1B3F0B57016801022E04C0BD
:10085000D694C794B794A7940A94D2F740E050E096
:1008600060E070E081E090E0A0E0B0E004C0880FBC
:10087000991FAA1FBB1F2A95D2F70197A109B10999
:100880008E219F21A023B1230097A105B10521F05E
:1008900041E050E060E070E04A295B296C297D2945
:1008A0004D835E836F8378878EE190E08E1B9F0B74
:1008B0009C838B8312C0309781F00E2E04C0EE0C07
:1008C000FF1C001F111F0A94D2F7ED82FE820F83D6
:1008D0001887CE1ADF0ADC82CB821A82CE010196FB
:1008E0000E94C5042896EAE00C94132DEF92FF9223
:1008F0000F931F937B018C0180E0E81680E0F806DF
:1009000081E0080780E0180788F48FEFE816F1040B
:100910000105110531F028F088E090E0A0E0B0E09A
:1009200017C080E090E0A0E0B0E012C080E0E816E0
:1009300080E0F80680E0080781E0180728F088E1E9
:1009400090E0A0E0B0E004C080E190E0A0E0B0E082
:1009500020E230E040E050E0281B390B4A0B5B0BF3
:1009600004C016950795F794E7948A95D2F7F70196
:10097000E859FF4F8081281B310941095109C901FC
:100980001F910F91FF90EF900895DF92EF92FF92E9
:100990000F931F93FC01E480F58006811781D180BD
:1009A0008081823048F480E090E0A0E1B0E0E82A65
:1009B000F92A0A2B1B2BA5C0843009F49FC0823072
:1009C00021F4EE24FF24870105C0E114F1040105A0
:1009D000110519F4E0E0F0E096C0628173819FEFA9
:1009E000623879070CF05BC022E83FEF261B370B1B
:1009F0002A3131052CF020E030E040E050E02AC000
:100A0000B801A701022E04C07695679557954795C2
:100A10000A94D2F781E090E0A0E0B0E004C0880F33
:100A2000991FAA1FBB1F2A95D2F70197A109B109E7
:100A30008E219F21A023B1230097A105B10521F0AC
:100A400081E090E0A0E0B0E09A01AB01282B392BC7
:100A50004A2B5B2BDA01C9018F779070A070B070C0
:100A600080349105A105B10539F427FF09C0205C48
:100A70003F4F4F4F5F4F04C0215C3F4F4F4F5F4F81
:100A8000E0E0F0E02030A0E03A07A0E04A07A0E470
:100A90005A0710F0E1E0F0E079018A0127C06038E0
:100AA000710564F5FB01E158FF4FD801C7018F774D
:100AB0009070A070B07080349105A105B10539F433
:100AC000E7FE0DC080E490E0A0E0B0E004C08FE35A
:100AD00090E0A0E0B0E0E80EF91E0A1F1B1F17FF10
:100AE00005C016950795F794E794319687E016951B
:100AF0000795F794E7948A95D1F705C0EE24FF2473
:100B00008701EFEFF0E06E2F679566276795902FCE
:100B10009F77D794DD24D7948E2F8695492F462B27
:100B2000582F5D29B701CA011F910F91FF90EF90D7
:100B3000DF900895FC01DB01408151812281622F09
:100B40006F7770E0221F2227221F9381892F880F41
:100B5000822B282F30E0991F9927991F11969C937B
:100B6000119721153105A9F541155105610571054B
:100B700011F482E037C082E89FEF13969C938E9326
:100B800012979A01AB0167E0220F331F441F551FD4
:100B90006A95D1F783E08C930DC0220F331F441F59
:100BA000551F12968D919C911397019713969C93C4
:100BB0008E931297203080E0380780E0480780E469
:100BC000580758F314962D933D934D935C931797C4
:100BD00008952F3F310579F44115510561057105DF
:100BE00019F484E08C93089564FF03C081E08C9332
:100BF00012C01C9210C02F57304013963C932E9376
:100C0000129783E08C9387E0440F551F661F771F70
:100C10008A95D1F7706414964D935D936D937C9390
:100C2000179708951F93DC01FB019C91923008F403
:100C300047C08081823008F443C0943051F411964B
:100C40001C91843099F58181682F70E0611B7109D6
:100C50003FC0843021F0923031F48230B9F181818B
:100C6000882389F12DC011961C9111978230F1F0E3
:100C700081811817D9F412962D913C911397828196
:100C800093818217930794F028173907BCF01496C4
:100C90008D919D910D90BC91A02D2481358146812F
:100CA0005781281739074A075B0718F4112341F0C9
:100CB0000AC082179307A407B50740F4112319F05F
:100CC00061E070E005C06FEF7FEF02C060E070E0B0
:100CD000CB011F910895DF93CF93CDB7DEB7AFE57A
:100CE000B0E0EFE5F0E0808180688C93CF91DF91F8
:100CF0000895DF93CF93CDB7DEB7AFE5B0E0EFE572
:100D0000F0E0808180688C93CF91DF910895DF932C
:100D1000CF93CDB7DEB7AFE5B0E0EFE5F0E080818F
:100D20008F778C93CF91DF910895DF93CF93CDB7D9
:100D3000DEB72C970FB6F894DEBF0FBECDBF9C83F5
:100D40008B831A8219828B819C81009709F424C1BC
:100D500019821DC18981882F90E09C01220F331FC9
:100D60008B819C81FC01E20FF31F8081813009F0AF
:100D70000BC18981282F30E03C872B878B859C8590
:100D80008130910509F468C02B853C8522303105FE
:100D900009F4BFC08B859C85009709F0F3C0ABE5D3
:100DA000B0E0EBE5F0E0808180648C93A5E5B0E0F5
:100DB000E5E5F0E080818C7F8C938981882F90E03D
:100DC0009C01220F331F8B819C81FC01E20FF31FDA
:100DD0008181282F30E03A87298789859A8582305A
:100DE000910551F129853A852330310534F48985FF
:100DF0009A858130910551F12CC029853A8523309F
:100E0000310531F089859A858430910559F021C0EA
:100E1000A5E5B0E0E5E5F0E0808182608C9381E0BB
:100E20008A83B2C0A5E5B0E0E5E5F0E080818360AB
:100E30008C9381E08A83A8C0A5E5B0E0E5E5F0E009
:100E4000808181608C9381E08A839EC081E08A8367
:100E50009BC083E08A8398C0ABE5B0E0EBE5F0E0AF
:100E6000808180688C93A5E5B0E0E5E5F0E08081C5
:100E7000837F8C938981882F90E09C01220F331F00
:100E80008B819C81FC01E20FF31F8181282F30E0D0
:100E900038872F838F8198858230910551F12F817A
:100EA00038852330310534F48F8198858130910560
:100EB00051F12CC02F8138852330310531F08F81DD
:100EC00098858430910559F021C0A5E5B0E0E5E5AD
:100ED000F0E0808188608C9381E08A8355C0A5E52D
:100EE000B0E0E5E5F0E080818C608C9381E08A835E
:100EF0004BC0A5E5B0E0E5E5F0E0808184608C932F
:100F000081E08A8341C081E08A833EC083E08A8396
:100F10003BC0ABE5B0E0EBE5F0E0808180628C9314
:100F20008981882F90E09C01220F331F8B819C8147
:100F3000FC01E20FF31F8181282F30E03E832D83D7
:100F40008D819E818330910531F02D813E81243049
:100F5000310559F014C0A4E5B0E0E4E5F0E080818B
:100F60008F7B8C9381E08A830FC0A4E5B0E0E4E539
:100F7000F0E0808180648C9381E08A8305C083E007
:100F80008A8302C083E08A8389818F5F8983898114
:100F9000833008F4DFCE02C082E08A838A812C96F7
:100FA0000FB6F894DEBF0FBECDBFCF91DF9108958D
:100FB000DF93CF93CDB7DEB72B970FB6F894DEBF94
:100FC0000FBECDBF8A836B8319828A81833008F07C
:100FD000D6C08A81282F30E03B872A878A859B8567
:100FE0008130910509F456C02A853B8522303105B0
:100FF00009F49BC08A859B85009709F0BDC0A5E5D3
:10100000B0E0E5E5F0E080818C7F8C938B81282F28
:1010100030E039872887888599858230910551F19C
:10102000288539852330310534F4888599858130C8
:10103000910551F12CC0288539852330310531F0D7
:10104000888599858430910559F021C0A5E5B0E0E7
:10105000E5E5F0E0808182608C9381E0898391C036
:10106000A5E5B0E0E5E5F0E0808183608C9381E068
:10107000898387C0A5E5B0E0E5E5F0E08081816087
:101080008C9381E089837DC081E089837AC083E08D
:10109000898377C0A5E5B0E0E5E5F0E08081837F56
:1010A0008C938B81282F30E03F832E838E819F810C
:1010B0008230910551F12E813F812330310534F486
:1010C0008E819F818130910551F12CC02E813F810D
:1010D0002330310531F08E819F818430910559F0A4
:1010E00021C0A5E5B0E0E5E5F0E0808188608C9363
:1010F00081E0898346C0A5E5B0E0E5E5F0E08081C8
:101100008C608C9381E089833CC0A5E5B0E0E5E587
:10111000F0E0808184608C9381E0898332C081E03B
:1011200089832FC083E089832CC08B81282F30E0F6
:101130003D832C838C819D818330910531F02C81FE
:101140003D812430310559F014C0A4E5B0E0E4E558
:10115000F0E080818F7B8C9381E0898312C0A4E5CD
:10116000B0E0E4E5F0E0808180648C9381E08983E5
:1011700008C083E0898305C083E0898302C083E0DF
:10118000898389812B960FB6F894DEBF0FBECDBF41
:10119000CF91DF910895DF93CF9300D000D0CDB7EA
:1011A000DEB78A8319828A818330A0F58A81282F4D
:1011B00030E03C832B838B819C818130910599F0B9
:1011C0002B813C8122303105C1F08B819C810097BD
:1011D000F1F4ABE5B0E0EBE5F0E0808180648C9366
:1011E00081E0898319C0ABE5B0E0EBE5F0E08081F8
:1011F00080688C9381E089830FC0ABE5B0E0EBE5BC
:10120000F0E0808180628C9381E0898305C083E077
:10121000898302C083E0898389810F900F900F90AA
:101220000F90CF91DF910895DF93CF9300D000D03E
:10123000CDB7DEB78A8319828A818330A0F58A818F
:10124000282F30E03C832B838B819C81813091055A
:1012500099F02B813C8122303105C1F08B819C813A
:101260000097F1F4ABE5B0E0EBE5F0E080818F7B37
:101270008C9381E0898319C0ABE5B0E0EBE5F0E049
:1012800080818F778C9381E089830FC0ABE5B0E0DC
:10129000EBE5F0E080818F7D8C9381E0898305C050
:1012A00083E0898302C083E0898389810F900F9056
:1012B0000F900F90CF91DF910895DF93CF9300D0DF
:1012C00000D0CDB7DEB79B838A836C8319828A8175
:1012D0009B810097A9F08C81833078F48C81882FD2
:1012E00090E0880F991FFC01EC52FE4F8A819B8190
:1012F0009183808381E0898305C083E0898302C074
:1013000082E0898389810F900F900F900F90CF9189
:10131000DF9108951F920F920FB60F9211242F9311
:101320003F934F935F936F937F938F939F93AF936D
:10133000BF93EF93FF93DF93CF93CDB7DEB7809149
:10134000D4019091D501009729F0E091D401F0915A
:10135000D5010995CF91DF91FF91EF91BF91AF91A9
:101360009F918F917F916F915F914F913F912F91BD
:101370000F900FBE0F901F9018951F920F920FB6EF
:101380000F9211242F933F934F935F936F937F930B
:101390008F939F93AF93BF93EF93FF93DF93CF937D
:1013A000CDB7DEB78091D6019091D701009729F093
:1013B000E091D601F091D7010995CF91DF91FF918E
:1013C000EF91BF91AF919F918F917F916F915F91BD
:1013D0004F913F912F910F900FBE0F901F90189536
:1013E0001F920F920FB60F9211242F933F934F939A
:1013F0005F936F937F938F939F93AF93BF93EF937D
:10140000FF93DF93CF93CDB7DEB78091D801909152
:10141000D901009729F0E091D801F091D9010995FF
:10142000CF91DF91FF91EF91BF91AF919F918F91FC
:101430007F916F915F914F913F912F910F900FBED0
:101440000F901F901895DF93CF930F92CDB7DEB713
:101450001982EAE3F0E08FEF8083E7E3F0E08FEFBB
:101460008083E4E3F0E08FEF8083E1E3F0E08FEF4F
:101470008083EBE3F0E01082E8E3F0E01082E5E344
:10148000F0E01082E2E3F0E0108281E0898389815C
:101490000F90CF91DF910895DF93CF9300D000D0CC
:1014A0000F92CDB7DEB78A836B8319828A8184302D
:1014B000A8F58A81282F30E03D832C838C819D8183
:1014C00081309105D1F02C813D81223031052CF401
:1014D0008C819D81009761F01EC02C813D8122305E
:1014E000310581F08C819D818330910581F013C09D
:1014F000EAE3F0E08B8180830EC0E7E3F0E08B81CC
:10150000808309C0E4E3F0E08B81808304C0E1E3E1
:10151000F0E08B81808381E0898302C083E089834E
:1015200089810F900F900F900F900F90CF91DF91C6
:101530000895DF93CF9300D000D00F92CDB7DEB7E0
:101540008A836B8319828A818430A8F58A81282F47
:1015500030E03D832C838C819D8181309105D1F0D9
:101560002C813D81223031052CF48C819D810097A6
:1015700061F01EC02C813D812230310581F08C81CB
:101580009D818330910581F013C0EBE3F0E08B8106
:1015900080830EC0E8E3F0E08B81808309C0E5E33F
:1015A000F0E08B81808304C0E2E3F0E08B818083F4
:1015B00081E0898302C083E0898389810F900F9045
:1015C0000F900F900F90CF91DF910895DF93CF93FD
:1015D00000D000D0CDB7DEB78A8319828A818430EB
:1015E00008F041C08A81282F30E03C832B838B8117
:1015F0009C8181309105E9F02B813C8122303105BD
:101600002CF48B819C81009761F02AC02B813C8156
:1016100022303105B1F08B819C8183309105C9F076
:101620001FC0ABE3B0E0EBE3F0E0808180958C93EA
:1016300017C0A8E3B0E0E8E3F0E0808180958C93E8
:101640000FC0A5E3B0E0E5E3F0E0808180958C93E6
:1016500007C0A2E3B0E0E2E3F0E0808180958C93E4
:1016600081E0898302C083E0898389810F900F9094
:101670000F900F90CF91DF910895DF93CF9300D01B
:1016800000D000D0CDB7DEB78A837C836B8319820C
:101690008B819C81009709F443C08A818430E8F5EE
:1016A0008A81282F30E03E832D838D819E81813079
:1016B0009105E1F02D813E81223031052CF48D81A0
:1016C0009E81009761F026C02D813E812230310538
:1016D000A1F08D819E8183309105B1F01BC0E9E3BB
:1016E000F0E08081EB81FC81808314C0E6E3F0E0D0
:1016F0008081EB81FC8180830DC0E3E3F0E0808199
:10170000EB81FC81808306C0E0E3F0E08081EB8127
:10171000FC81808381E0898305C083E0898302C0E6
:1017200082E08983898126960FB6F894DEBF0FBECA
:10173000CDBFCF91DF910895DF93CF9300D000D03C
:1017400000D0CDB7DEB78A836B834C8319828A8140
:10175000843008F0D1C08B81883008F0CDC08C81F6
:10176000823008F0C9C08A81282F30E03E832D8363
:101770006D817E816130710509F441C08D819E814A
:101780008230910534F42D813E812115310571F0AF
:10179000B0C06D817E816230710509F459C08D81C0
:1017A0009E818330910509F47CC0A3C0AAE3B0E018
:1017B000EAE3F0E08081482F8B81282F30E081E040
:1017C00090E002C0880F991F2A95E2F78095842344
:1017D0008C93AAE3B0E0EAE3F0E08081482F8C81AB
:1017E000282F30E08B81882F90E0B90102C0660F6E
:1017F000771F8A95E2F7CB01842B8C937AC0A7E3FD
:10180000B0E0E7E3F0E08081482F8B81282F30E0C3
:1018100081E090E002C0880F991F2A95E2F7809539
:1018200084238C93A7E3B0E0E7E3F0E08081482FC6
:101830008C81282F30E08B81882F90E0B90102C085
:10184000660F771F8A95E2F7CB01842B8C9351C0EA
:10185000A4E3B0E0E4E3F0E08081482F8B81282FFF
:1018600030E081E090E002C0880F991F2A95E2F7EE
:10187000809584238C93A4E3B0E0E4E3F0E08081DE
:10188000482F8C81282F30E08B81882F90E0B90180
:1018900002C0660F771F8A95E2F7CB01842B8C93E9
:1018A00028C0A1E3B0E0E1E3F0E08081482F8B8124
:1018B000282F30E081E090E002C0880F991F2A9520
:1018C000E2F7809584238C93A1E3B0E0E1E3F0E0BC
:1018D0008081482F8C81282F30E08B81882F90E0E9
:1018E000B90102C0660F771F8A95E2F7CB01842BFE
:1018F0008C9381E0898302C083E089838981269665
:101900000FB6F894DEBF0FBECDBFCF91DF91089523
:10191000DF93CF9300D000D000D0CDB7DEB78A835D
:101920006B834C8319828A81843008F0D1C08B810B
:10193000883008F0CDC08C81823008F0C9C08A811F
:10194000282F30E03E832D836D817E8161307105CB
:1019500009F441C08D819E818230910534F42D813E
:101960003E812115310571F0B0C06D817E816230FC
:10197000710509F459C08D819E818330910509F468
:101980007CC0A3C0ABE3B0E0EBE3F0E08081482F84
:101990008B81282F30E081E090E002C0880F991FF2
:1019A0002A95E2F7809584238C93ABE3B0E0EBE3D8
:1019B000F0E08081482F8C81282F30E08B81882FA8
:1019C00090E0B90102C0660F771F8A95E2F7CB015C
:1019D000842B8C937AC0A8E3B0E0E8E3F0E0808148
:1019E000482F8B81282F30E081E090E002C0880FE3
:1019F000991F2A95E2F7809584238C93A8E3B0E0A1
:101A0000E8E3F0E08081482F8C81282F30E08B8143
:101A1000882F90E0B90102C0660F771F8A95E2F720
:101A2000CB01842B8C9351C0A5E3B0E0E5E3F0E05B
:101A30008081482F8B81282F30E081E090E002C028
:101A4000880F991F2A95E2F7809584238C93A5E34C
:101A5000B0E0E5E3F0E08081482F8C81282F30E072
:101A60008B81882F90E0B90102C0660F771F8A959D
:101A7000E2F7CB01842B8C9328C0A2E3B0E0E2E331
:101A8000F0E08081482F8B81282F30E081E090E0CA
:101A900002C0880F991F2A95E2F7809584238C93C2
:101AA000A2E3B0E0E2E3F0E08081482F8C81282FB0
:101AB00030E08B81882F90E0B90102C0660F771F5C
:101AC0008A95E2F7CB01842B8C9381E0898302C055
:101AD00083E08983898126960FB6F894DEBF0FBE16
:101AE000CDBFCF91DF910895DF93CF9300D000D089
:101AF0000F92CDB7DEB78A836B8319828A818430D7
:101B000008F075C08B81883008F071C08A81282F59
:101B100030E03D832C838C819D818130910549F19A
:101B20002C813D81223031052CF48C819D810097E0
:101B300061F05AC02C813D812230310571F18C81D8
:101B40009D8183309105E9F14FC0ABE3B0E0EBE359
:101B5000F0E08081482F8B81282F30E081E090E0F9
:101B6000022E02C0880F991F0A94E2F784278C93F3
:101B70003BC0A8E3B0E0E8E3F0E08081482F8B8130
:101B8000282F30E081E090E0022E02C0880F991FDC
:101B90000A94E2F784278C9327C0A5E3B0E0E5E33D
:101BA000F0E08081482F8B81282F30E081E090E0A9
:101BB000022E02C0880F991F0A94E2F784278C93A3
:101BC00013C0A2E3B0E0E2E3F0E08081482F8B8114
:101BD000282F30E081E090E0022E02C0880F991F8C
:101BE0000A94E2F784278C9381E0898302C083E022
:101BF000898389810F900F900F900F900F90CF9154
:101C0000DF910895DF93CF93CDB7DEB727970FB657
:101C1000F894DEBF0FBECDBF8A836B835D834C8398
:101C200019828C819D81009709F47EC08A8184305D
:101C300008F077C08B81883008F073C08A81282F24
:101C400030E03F832E834E815F814130510559F151
:101C50008E819F818230910534F42E813F81211540
:101C6000310569F05BC04E815F814230510579F1E9
:101C70008E819F818330910509F43DC04FC0E9E317
:101C8000F0E08081282F30E08B81882F90E0A9013F
:101C900002C0559547958A95E2F7CA018170EC819B
:101CA000FD8180833BC0E6E3F0E08081282F30E0B7
:101CB0008B81882F90E0A90102C0559547958A95A0
:101CC000E2F7CA018170EC81FD81808327C0E3E3E4
:101CD000F0E08081282F30E08B81882F90E0A901EF
:101CE00002C0559547958A95E2F7CA018170EC814B
:101CF000FD81808313C0E0E3F0E08081282F30E095
:101D00008B81882F90E0A90102C0559547958A954F
:101D1000E2F7CA018170EC81FD81808381E08983D3
:101D200005C083E0898302C082E089838981279688
:101D30000FB6F894DEBF0FBECDBFCF91DF910895EF
:101D4000DF93CF9300D000D0CDB7DEB79C838B83D9
:101D50001A828B819C81009709F45DC019821982D7
:101D600055C08981282F30E0C901880F991F280F9D
:101D7000391F8B819C81FC01E20FF31F4081898117
:101D8000282F30E0C901880F991F280F391F8B8138
:101D90009C81FC01E20FF31F9181842F692F40E0A9
:101DA0000E949C0B8A838981282F30E0C901880F0B
:101DB000991F280F391F8B819C81FC01E20FF31FB3
:101DC00050818981282F30E0C901880F991F280F81
:101DD000391F8B819C81FC01E20FF31F41818981B6
:101DE000282F30E0C901880F991F280F391F8B81D8
:101DF0009C81FC01E20FF31F9281852F642F492FF4
:101E00000E94880C8A8389818F5F898389818330CE
:101E100008F4A7CF02C082E08A838A810F900F90D6
:101E20000F900F90CF91DF910895DF93CF9300D063
:101E300000D00F92CDB7DEB79B838A837D836C83FE
:101E400019828A819B81009791F08C819D810097F6
:101E500071F0EA81FB818081EA81FB8191812C8193
:101E60003D81692FA9010E94020E898302C082E090
:101E7000898389810F900F900F900F900F90CF91D1
:101E8000DF910895DF93CF9300D000D0CDB7DEB7B8
:101E90009C838B831A828B819C81009709F423C1D8
:101EA000198219821BC18981882F90E09C01220F21
:101EB000331F220F331F8B819C81FC01E20FF31F24
:101EC00040818981882F90E09C01220F331F220FCF
:101ED000331F8B819C81FC01E20FF31F9181842FC2
:101EE000692F41E00E949C0B8A838981882F90E0B2
:101EF0009C01220F331F220F331F8B819C81FC0119
:101F0000E20FF31F8281882309F069C08981882F3D
:101F100090E09C01220F331F220F331F8B819C8185
:101F2000FC01E20FF31F8381813019F58981882F2D
:101F300090E09C01220F331F220F331F8B819C8165
:101F4000FC01E20FF31F40818981882F90E09C0102
:101F5000220F331F220F331F8B819C81FC01E20F64
:101F6000F31F9181842F692F40E00E94880C8A839F
:101F7000B2C08981882F90E09C01220F331F220F6D
:101F8000331F8B819C81FC01E20FF31F8381882327
:101F900019F58981882F90E09C01220F331F220FB1
:101FA000331F8B819C81FC01E20FF31F40818981EB
:101FB000882F90E09C01220F331F220F331F8B814B
:101FC0009C81FC01E20FF31F9181842F692F41E076
:101FD0000E94880C8A837FC083E08A837CC08981C9
:101FE000882F90E09C01220F331F220F331F8B811B
:101FF0009C81FC01E20FF31F8281813009F069C0EE
:102000008981882F90E09C01220F331F220F331FFC
:102010008B819C81FC01E20FF31F8381813019F5D4
:102020008981882F90E09C01220F331F220F331FDC
:102030008B819C81FC01E20FF31F40818981882FF5
:1020400090E09C01220F331F220F331F8B819C8154
:10205000FC01E20FF31F9181842F692F41E00E9460
:10206000880C8A8338C08981882F90E09C01220FD8
:10207000331F220F331F8B819C81FC01E20FF31F62
:102080008381882319F58981882F90E09C01220F94
:10209000331F220F331F8B819C81FC01E20FF31F42
:1020A00040818981882F90E09C01220F331F220FED
:1020B000331F8B819C81FC01E20FF31F9181842FE0
:1020C000692F40E00E94880C8A8305C083E08A83E0
:1020D00002C083E08A8389818F5F8983898183300D
:1020E00008F4E1CE02C082E08A838A810F900F90CB
:1020F0000F900F90CF91DF910895DF93CF9300D091
:1021000000D0CDB7DEB79B838A836C8319828A8126
:102110009B81009709F470C08C81833008F069C0FE
:102120008C81882F90E09C01220F331F220F331FD8
:102130008A819B81FC01E20FF31F8281882319F5BC
:102140008C81882F90E09C01220F331F220F331FB8
:102150008A819B81FC01E20FF31F40818C81882FD3
:1021600090E09C01220F331F220F331F8A819B8135
:10217000FC01E20FF31F9181842F692F40E00E9440
:10218000880C89833BC08C81882F90E09C01220FB2
:10219000331F220F331F8A819B81FC01E20FF31F43
:1021A0008281813019F58C81882F90E09C01220F6B
:1021B000331F220F331F8A819B81FC01E20FF31F23
:1021C00040818C81882F90E09C01220F331F220FC9
:1021D000331F8A819B81FC01E20FF31F9181842FC1
:1021E000692F41E00E94880C898308C083E08983BD
:1021F00005C083E0898302C082E0898389810F90D2
:102200000F900F900F90CF91DF910895DF93CF93B0
:1022100000D000D0CDB7DEB79B838A836C83198250
:102220008A819B81009709F470C08C81833008F00B
:1022300069C08C81882F90E09C01220F331F220FF0
:10224000331F8A819B81FC01E20FF31F8281882367
:1022500019F58C81882F90E09C01220F331F220FEB
:10226000331F8A819B81FC01E20FF31F40818C8127
:10227000882F90E09C01220F331F220F331F8A8189
:102280009B81FC01E20FF31F9181842F692F41E0B4
:102290000E94880C89833BC08C81882F90E09C0130
:1022A000220F331F220F331F8A819B81FC01E20F13
:1022B000F31F8281813019F58C81882F90E09C0179
:1022C000220F331F220F331F8A819B81FC01E20FF3
:1022D000F31F40818C81882F90E09C01220F331FD7
:1022E000220F331F8A819B81FC01E20FF31F918132
:1022F000842F692F40E00E94880C898308C083E006
:10230000898305C083E0898302C082E08983898153
:102310000F900F900F900F90CF91DF910895DF9362
:10232000CF9300D000D000D0CDB7DEB79B838A8397
:102330006C835E834D8319828A819B81009779F13A
:102340008D819E81009759F18C81833028F58C8195
:10235000882F90E09C01220F331F220F331F8A81A8
:102360009B81FC01E20FF31F40818C81882F90E05C
:102370009C01220F331F220F331F8A819B81FC0196
:10238000E20FF31F91812D813E81842F692FA901D6
:102390000E94020E898305C083E0898302C082E027
:1023A0008983898126960FB6F894DEBF0FBECDBF14
:1023B000CF91DF910895DF93CF93CDB7DEB7AE977E
:1023C0000FB6F894DEBF0FBECDBF9EA78DA71CA68B
:1023D0001BA68DA59EA5009709F4F2C31BA6E9C311
:1023E0008BA5282F30E0C901880F991F820F931FFA
:1023F000880F991F880F991F880F991FAC01421BE6
:10240000530B9A018DA59EA5FC01E20FF31F40819D
:102410008BA5282F30E0C901880F991F820F931FC9
:10242000880F991F880F991F880F991FBC01621B85
:10243000730B9B018DA59EA5FC01E20FF31F9181FB
:10244000842F692F41E00E949C0B8BA5282F30E040
:10245000C901880F991F820F931F880F991F880F3A
:10246000991F880F991FAC01421B530B9A018DA530
:102470009EA5FC01E20FF31F42818BA5282F30E0BF
:10248000C901880F991F820F931F880F991F880F0A
:10249000991F880F991FBC01621B730B9B018DA5AF
:1024A0009EA5FC01E20FF31F9381842F692F41E069
:1024B0000E949C0B8BA5282F30E0C901880F991F23
:1024C000820F931F880F991F880F991F880F991FDC
:1024D000AC01421B530B9A018DA59EA5FC01E20F96
:1024E000F31F44818BA5282F30E0C901880F991F65
:1024F000820F931F880F991F880F991F880F991FAC
:10250000BC01621B730B9B018DA59EA5FC01E20F14
:10251000F31F9581842F692F41E00E949C0B8BA5AE
:10252000282F30E0C901880F991F820F931F880F51
:10253000991F880F991F880F991FAC01421B530BDD
:102540009A018DA59EA5FC01E20FF31F46818BA584
:10255000282F30E0C901880F991F820F931F880F21
:10256000991F880F991F880F991FBC01621B730B5D
:102570009B018DA59EA5FC01E20FF31F9781842F7F
:10258000692F41E00E949C0B8BA5282F30E0C901E8
:10259000880F991F820F931F880F991F880F991F0B
:1025A000880F991FAC01421B530B9A018DA59EA564
:1025B000FC01E20FF31F40858BA5282F30E0C901F5
:1025C000880F991F820F931F880F991F880F991FDB
:1025D000880F991FBC01621B730B9B018DA59EA5E3
:1025E000FC01E20FF31F9185842F692F41E00E94C7
:1025F0009C0B8BA5282F30E0C901880F991F820FF3
:10260000931F880F991F880F991F880F991FAC017E
:10261000421B530B9A018DA59EA5FC01E20FF31FEF
:1026200042858BA5282F30E0C901880F991F820FA2
:10263000931F880F991F880F991F880F991FBC013E
:10264000621B730B9B018DA59EA5FC01E20FF31F7E
:102650009385842F692F41E00E949C0B8BA5282F26
:1026600030E0C901880F991F820F931F880F991FAF
:10267000880F991F880F991FAC01421B530B9A01B9
:102680008DA59EA5FC01E20FF31F44858BA5282F85
:1026900030E0C901880F991F820F931F880F991F7F
:1026A000880F991F880F991FBC01621B730B9B0138
:1026B0008DA59EA5FC01E20FF31F9585842F692F40
:1026C00041E00E949C0B80E090E0A0E2B2E48FA386
:1026D00098A7A9A7BAA76FA178A589A59AA520E070
:1026E00030E04AEF53E40E941F02DC01CB018BA3D0
:1026F0009CA3ADA3BEA36BA17CA18DA19EA120E054
:1027000030E040E85FE30E94790388232CF481E005
:1027100090E09AA389A33FC06BA17CA18DA19EA14B
:1027200020E03FEF4FE757E40E94190318164CF5DD
:102730006FA178A589A59AA520E030E040E251E498
:102740000E941F02DC01CB01BC01CD010E944900A7
:10275000DC01CB019AA389A30FC082E390E098A388
:102760008F8F8F8D98A10197F1F798A38F8F89A1F3
:102770009AA101979AA389A389A19AA1009769F7C1
:1027800014C06BA17CA18DA19EA10E944900DC0117
:10279000CB019AA389A389A19AA19E8F8D8F8D8D3C
:1027A0009E8D0197F1F79E8F8D8F8BA5282F30E09E
:1027B000C901880F991F820F931F880F991F880FD7
:1027C000991F880F991FAC01421B530B9A018DA5CD
:1027D0009EA5FC01E20FF31F8689883009F0D9C05D
:1027E0008BA5282F30E0C901880F991F820F931FF6
:1027F000880F991F880F991F880F991FBC01621BB2
:10280000730B9B018DA59EA5FC01E20FF31F46856E
:102810008BA5282F30E0C901880F991F820F931FC5
:10282000880F991F880F991F880F991FBC01621B81
:10283000730B9B018DA59EA5FC01E20FF31F9785ED
:10284000842F692F41E00E949C0B8BA5282F30E03C
:10285000C901880F991F820F931F880F991F880F36
:10286000991F880F991FAC01421B530B9A018DA52C
:102870009EA5FC01E20FF31F40898BA5282F30E0B5
:10288000C901880F991F820F931F880F991F880F06
:10289000991F880F991FBC01621B730B9B018DA5AB
:1028A0009EA5FC01E20FF31F9189842F692F41E05F
:1028B0000E949C0B8BA5282F30E0C901880F991F1F
:1028C000820F931F880F991F880F991F880F991FD8
:1028D000AC01421B530B9A018DA59EA5FC01E20F92
:1028E000F31F42898BA5282F30E0C901880F991F5B
:1028F000820F931F880F991F880F991F880F991FA8
:10290000BC01621B730B9B018DA59EA5FC01E20F10
:10291000F31F9389842F692F41E00E949C0B8BA5A4
:10292000282F30E0C901880F991F820F931F880F4D
:10293000991F880F991F880F991FAC01421B530BD9
:102940009A018DA59EA5FC01E20FF31F44898BA57A
:10295000282F30E0C901880F991F820F931F880F1D
:10296000991F880F991F880F991FBC01621B730B59
:102970009B018DA59EA5FC01E20FF31F9589842F75
:10298000692F41E00E949C0B8BA568E30E94FE1713
:1029900021C08BA5282F30E0C901880F991F820F15
:1029A000931F880F991F880F991F880F991FAC01DB
:1029B000421B530B9A018DA59EA5FC01E20FF31F4C
:1029C0008689843029F48BA568E20E94FE1702C034
:1029D00083E08CA780E090E0A0E8BFE3898F9A8F26
:1029E000AB8FBC8F698D7A8D8B8D9C8D20E030E014
:1029F0004AEF53E40E941F02DC01CB018D8B9E8BBA
:102A0000AF8BB88F6D897E898F89988D20E030E0FB
:102A100040E85FE30E94790388232CF481E090E092
:102A20009C8B8B8B3FC06D897E898F89988D20E030
:102A30003FEF4FE757E40E94190318164CF5698DD4
:102A40007A8D8B8D9C8D20E030E040E251E40E9435
:102A50001F02DC01CB01BC01CD010E944900DC0159
:102A6000CB019C8B8B8B0FC082E390E09A8B898B80
:102A700089899A890197F1F79A8B898B8B899C892F
:102A800001979C8B8B8B8B899C89009769F714C06D
:102A90006D897E898F89988D0E944900DC01CB0168
:102AA0009C8B8B8B8B899C89988B8F878F85988942
:102AB0000197F1F7988B8F878BA561E00E94FE1735
:102AC00080E090E0A0E0B0E48B879C87AD87BE8774
:102AD0006B857C858D859E8520E030E04AEF53E450
:102AE0000E941F02DC01CB018F839887A987BA87D8
:102AF0006F81788589859A8520E030E040E85FE342
:102B00000E94790388232CF481E090E09E838D83DA
:102B10003FC06F81788589859A8520E03FEF4FE738
:102B200057E40E94190318164CF56B857C858D853A
:102B30009E8520E030E040E251E40E941F02DC016B
:102B4000CB01BC01CD010E944900DC01CB019E8379
:102B50008D830FC082E390E09C838B838B819C816B
:102B60000197F1F79C838B838D819E8101979E83D2
:102B70008D838D819E81009769F714C06F81788560
:102B800089859A850E944900DC01CB019E838D8353
:102B90008D819E819A83898389819A810197F1F73A
:102BA0009A8389838BA566E00E94FE178BA58F5FB1
:102BB0008BA78BA5882309F413CC81E08CA702C0D6
:102BC00082E08CA78CA5AE960FB6F894DEBF0FBE40
:102BD000CDBFCF91DF910895DF93CF9300D00F92B7
:102BE000CDB7DEB78A836B8319828A818823A1F5EA
:102BF0008A81282F30E0C901880F991F820F931F07
:102C0000880F991F880F991F880F991F821B930B9C
:102C1000FC01ED57FE4F40818A81282F30E0C90129
:102C2000880F991F820F931F880F991F880F991F74
:102C3000880F991F821B930BFC01EC57FE4F90816C
:102C4000842F692F41E00E94880C8A816B810E9449
:102C5000841B81E0898302C083E0898389810F908E
:102C60000F900F90CF91DF910895DF93CF9300D015
:102C700000D00F92CDB7DEB78B837D836C831A8231
:102C800019828B81882331F58C819D810097F9F021
:102C900010C08981282F30E08C819D81FC01E20FDA
:102CA000F31F90818B81692F0E94841B89818F5F24
:102CB00089838981282F30E08C819D81FC01E20F7E
:102CC000F31F8081882329F781E08A8305C082E091
:102CD0008A8302C083E08A838A810F900F900F90CD
:102CE0000F900F90CF91DF910895DF93CF93CDB7E1
:102CF000DEB728970FB6F894DEBF0FBECDBF8E8328
:102D000078876F831D821C821B821A8219828E81B2
:102D1000282F30E0C901880F991F820F931F880F59
:102D2000991F880F991F880F991F821B930BFC0115
:102D3000ED57FE4F40818E81282F30E0C901880F6A
:102D4000991F820F931F880F991F880F991F880F53
:102D5000991F821B930BFC01EC57FE4F9081842F2F
:102D6000692F41E00E94880C8E81882309F05FC0A2
:102D70008F8198859923A4F58E816DE20E94841B32
:102D80008F819885909581959F4F98878F8328C0D4
:102D90008F8198852AE030E0B9010E94DC2C8A837B
:102DA0008B819C819C01220F331FC901880F991FC1
:102DB000880F991F280F391F8A81882F90E0820F72
:102DC000931F9C838B838F8198852AE030E0B90123
:102DD0000E94DC2CCB0198878F8389818F5F898348
:102DE0008F8198850097A1F61CC08B819C812AE079
:102DF00030E0B9010E94DC2C8A838A81982F905D93
:102E00008E81692F0E94841B8B819C812AE030E097
:102E1000B9010E94DC2CCB019C838B83898181507A
:102E200089838981882309F781E08D8302C083E04B
:102E30008D838D8128960FB6F894DEBF0FBECDBF6F
:102E4000CF91DF910895DF93CF9300D00F92CDB74C
:102E5000DEB78A836B8319828A818823A1F58A81F0
:102E6000282F30E0C901880F991F820F931F880F08
:102E7000991F880F991F880F991F821B930BFC01C4
:102E8000ED57FE4F40818A81282F30E0C901880F1D
:102E9000991F820F931F880F991F880F991F880F02
:102EA000991F821B930BFC01EC57FE4F9081842FDE
:102EB000692F40E00E94880C8A816B810E94FE1776
:102EC00081E0898302C083E0898389810F900F901C
:102ED0000F90CF91DF910895DF93CF9300D000D072
:102EE000CDB7DEB78A836B834C8319828A818823AE
:102EF00009F07AC08B81823008F076C08C818031F5
:102F000008F072C08B818130A9F58A81282F30E0CA
:102F1000C901880F991F820F931F880F991F880F6F
:102F2000991F880F991F821B930BFC01ED57FE4FD1
:102F300040818A81282F30E0C901880F991F820FB4
:102F4000931F880F991F880F991F880F991F821B45
:102F5000930BFC01EC57FE4F9081842F692F40E0CA
:102F60000E94880C8C81982F90588A81692F0E942A
:102F7000FE1737C08B818230A1F58A81282F30E07F
:102F8000C901880F991F820F931F880F991F880FFF
:102F9000991F880F991F821B930BFC01ED57FE4F61
:102FA00040818A81282F30E0C901880F991F820F44
:102FB000931F880F991F880F991F880F991F821BD5
:102FC000930BFC01EC57FE4F9081842F692F40E05A
:102FD0000E94880C8C81982F90548A81692F0E94BE
:102FE000FE1781E0898302C083E0898389810F9085
:102FF0000F900F900F90CF91DF910895DF93CF93B3
:10300000CDB7DEB76E970FB6F894DEBF0FBECDBF5B
:103010008D8F6E8F8D8D882309F0FBC28D8D282FAB
:1030200030E0C901880F991F820F931F880F991FE5
:10303000880F991F880F991F821B930BFC01ED5776
:10304000FE4F40818D8D282F30E0C901880F991FD8
:10305000820F931F880F991F880F991F880F991F40
:10306000821B930BFC01EC57FE4F9081842F692F3C
:1030700040E00E94880C8D8D282F30E0C901880F18
:10308000991F820F931F880F991F880F991F880F10
:10309000991F821B930BFC01EB57FE4F40818D8DD6
:1030A000282F30E0C901880F991F820F931F880FC6
:1030B000991F880F991F880F991F821B930BFC0182
:1030C000EA57FE4F9081842F692F40E00E94880CC0
:1030D0008D8D282F30E0C901880F991F820F931F13
:1030E000880F991F880F991F880F991F821B930BB8
:1030F000FC01E957FE4F40818D8D282F30E0C9013A
:10310000880F991F820F931F880F991F880F991F8F
:10311000880F991F821B930BFC01E857FE4F90818B
:10312000842F692F40E00E94880C8D8D282F30E07D
:10313000C901880F991F820F931F880F991F880F4D
:10314000991F880F991F821B930BFC01E757FE4FB5
:1031500040818D8D282F30E0C901880F991F820F83
:10316000931F880F991F880F991F880F991F821B23
:10317000930BFC01E657FE4F20818E8D982F991FEF
:103180009927991F842F622F492F0E94880C8D8DBB
:10319000282F30E0C901880F991F820F931F880FD5
:1031A000991F880F991F880F991F821B930BFC0191
:1031B000E557FE4F40818D8D282F30E0C901880FE3
:1031C000991F820F931F880F991F880F991F880FCF
:1031D000991F821B930BFC01E457FE4F20818E8DBB
:1031E0008295869586958370982F9170842F622F93
:1031F000492F0E94880C8D8D282F30E0C901880F3F
:10320000991F820F931F880F991F880F991F880F8E
:10321000991F821B930BFC01E357FE4F40818D8D5C
:10322000282F30E0C901880F991F820F931F880F44
:10323000991F880F991F880F991F821B930BFC0100
:10324000E257FE4F20818E8D829586958770982F4C
:103250009170842F622F492F0E94880C8D8D282F0A
:1032600030E0C901880F991F820F931F880F991FA3
:10327000880F991F880F991F821B930BFC01E15740
:10328000FE4F40818D8D282F30E0C901880F991F96
:10329000820F931F880F991F880F991F880F991FFE
:1032A000821B930BFC01E057FE4F20818E8D82958F
:1032B0008F70982F9170842F622F492F0E94880C55
:1032C0008D8D282F30E0C901880F991F820F931F21
:1032D000880F991F880F991F880F991F821B930BC6
:1032E000FC01E756FE4F8081883009F0C6C08D8D05
:1032F000282F30E0C901880F991F820F931F880F74
:10330000991F880F991F880F991F821B930BFC012F
:10331000EF56FE4F40818D8D282F30E0C901880F78
:10332000991F820F931F880F991F880F991F880F6D
:10333000991F821B930BFC01EE56FE4F20818E8D50
:10334000869586958695982F9170842F622F492FA8
:103350000E94880C8D8D282F30E0C901880F991F9D
:10336000820F931F880F991F880F991F880F991F2D
:10337000821B930BFC01ED56FE4F40818D8D282F53
:1033800030E0C901880F991F820F931F880F991F82
:10339000880F991F880F991F821B930BFC01EC5615
:1033A000FE4F20818E8D86958695982F9170842F63
:1033B000622F492F0E94880C8D8D282F30E0C90183
:1033C000880F991F820F931F880F991F880F991FCD
:1033D000880F991F821B930BFC01EB56FE4F408117
:1033E0008D8D282F30E0C901880F991F820F931F00
:1033F000880F991F880F991F880F991F821B930BA5
:10340000FC01EA56FE4F20818E8D8695982F917093
:10341000842F622F492F0E94880C8D8D282F30E039
:10342000C901880F991F820F931F880F991F880F5A
:10343000991F880F991F821B930BFC01E956FE4FC1
:1034400040818D8D282F30E0C901880F991F820F90
:10345000931F880F991F880F991F880F991F821B30
:10346000930BFC01E856FE4F20818E8D982F9170B2
:10347000842F622F492F0E94880C8D8D282F30E0D9
:10348000C901880F991F820F931F880F991F880FFA
:10349000991F880F991F821B930BFC01E957FE4F60
:1034A00040818D8D282F30E0C901880F991F820F30
:1034B000931F880F991F880F991F880F991F821BD0
:1034C000930BFC01E857FE4F9081842F692F41E058
:1034D0000E94880C80E090E0A0E2B1E4898F9A8F8E
:1034E000AB8FBC8F698D7A8D8B8D9C8D20E030E009
:1034F0004AEF53E40E941F02DC01CB018D8B9E8BAF
:10350000AF8BB88F6D897E898F89988D20E030E0F0
:1035100040E85FE30E94790388232CF481E090E087
:103520009C8B8B8B3FC06D897E898F89988D20E025
:103530003FEF4FE757E40E94190318164CF5698DC9
:103540007A8D8B8D9C8D20E030E040E251E40E942A
:103550001F02DC01CB01BC01CD010E944900DC014E
:10356000CB019C8B8B8B0FC082E390E09A8B898B75
:1035700089899A890197F1F79A8B898B8B899C8924
:1035800001979C8B8B8B8B899C89009769F714C062
:103590006D897E898F89988D0E944900DC01CB015D
:1035A0009C8B8B8B8B899C89988B8F878F85988937
:1035B0000197F1F7988B8F878D8D282F30E0C90107
:1035C000880F991F820F931F880F991F880F991FCB
:1035D000880F991F821B930BFC01E957FE4F408116
:1035E0008D8D282F30E0C901880F991F820F931FFE
:1035F000880F991F880F991F880F991F821B930BA3
:10360000FC01E857FE4F9081842F692F40E00E9413
:10361000880C80E090E0A0E2B1E48B879C87AD87C6
:10362000BE876B857C858D859E8520E030E04AEFE6
:1036300053E40E941F02DC01CB018F839887A98786
:10364000BA876F81788589859A8520E030E040E8E7
:103650005FE30E94790388232CF481E090E09E834D
:103660008D833FC06F81788589859A8520E03FEF03
:103670004FE757E40E94190318164CF56B857C85BB
:103680008D859E8520E030E040E251E40E941F02DB
:10369000DC01CB01BC01CD010E944900DC01CB0162
:1036A0009E838D830FC082E390E09C838B838B810C
:1036B0009C810197F1F79C838B838D819E8101977B
:1036C0009E838D838D819E81009769F714C06F81E1
:1036D000788589859A850E944900DC01CB019E830B
:1036E0008D838D819E819A83898389819A810197B7
:1036F000F1F79A8389836E960FB6F894DEBF0FBEFA
:10370000CDBFCF91DF910895DF93CF93CDB7DEB7D3
:1037100060970FB6F894DEBF0FBECDBF8F87688B62
:103720008F85882309F0CEC28F85282F30E0C9010C
:10373000880F991F820F931F880F991F880F991F59
:10374000880F991F821B930BFC01EB57FE4F4081A2
:103750008F85282F30E0C901880F991F820F931F92
:10376000880F991F880F991F880F991F821B930B31
:10377000FC01EA57FE4F9081842F692F40E00E94A0
:10378000880C8F85282F30E0C901880F991F820F80
:10379000931F880F991F880F991F880F991F821BED
:1037A000930BFC01E957FE4F40818F85282F30E0B5
:1037B000C901880F991F820F931F880F991F880FC7
:1037C000991F880F991F821B930BFC01E857FE4F2E
:1037D0009081842F692F40E00E94880C8F85282FCC
:1037E00030E0C901880F991F820F931F880F991F1E
:1037F000880F991F880F991F821B930BFC01E757B5
:10380000FE4F40818F85282F30E0C901880F991F16
:10381000820F931F880F991F880F991F880F991F78
:10382000821B930BFC01E657FE4F20818889982F5D
:10383000991F9927991F842F622F492F0E94880C66
:103840008F85282F30E0C901880F991F820F931FA1
:10385000880F991F880F991F880F991F821B930B40
:10386000FC01E557FE4F40818F85282F30E0C901CC
:10387000880F991F820F931F880F991F880F991F18
:10388000880F991F821B930BFC01E457FE4F208188
:1038900088898295869586958370982F9170842F5C
:1038A000622F492F0E94880C8F85282F30E0C90194
:1038B000880F991F820F931F880F991F880F991FD8
:1038C000880F991F821B930BFC01E357FE4F408129
:1038D0008F85282F30E0C901880F991F820F931F11
:1038E000880F991F880F991F880F991F821B930BB0
:1038F000FC01E257FE4F208188898295869587706A
:10390000982F9170842F622F492F0E94880C8F85E9
:10391000282F30E0C901880F991F820F931F880F4D
:10392000991F880F991F880F991F821B930BFC0109
:10393000E157FE4F40818F85282F30E0C901880F65
:10394000991F820F931F880F991F880F991F880F47
:10395000991F821B930BFC01E057FE4F2081888941
:1039600082958F70982F9170842F622F492F0E941B
:10397000880C8F85282F30E0C901880F991F820F8E
:10398000931F880F991F880F991F880F991F821BFB
:10399000930BFC01E756FE4F8081883009F0C6C0CA
:1039A0008F85282F30E0C901880F991F820F931F40
:1039B000880F991F880F991F880F991F821B930BDF
:1039C000FC01EF56FE4F40818F85282F30E0C90162
:1039D000880F991F820F931F880F991F880F991FB7
:1039E000880F991F821B930BFC01EE56FE4F20811E
:1039F0008889869586958695982F9170842F622F59
:103A0000492F0E94880C8F85282F30E0C901880F2C
:103A1000991F820F931F880F991F880F991F880F76
:103A2000991F821B930BFC01ED56FE4F40818F8541
:103A3000282F30E0C901880F991F820F931F880F2C
:103A4000991F880F991F880F991F821B930BFC01E8
:103A5000EC56FE4F2081888986958695982F917027
:103A6000842F622F492F0E94880C8F85282F30E0E9
:103A7000C901880F991F820F931F880F991F880F04
:103A8000991F880F991F821B930BFC01EB56FE4F69
:103A900040818F85282F30E0C901880F991F820F40
:103AA000931F880F991F880F991F880F991F821BDA
:103AB000930BFC01EA56FE4F208188898695982F4A
:103AC0009170842F622F492F0E94880C8F85282F98
:103AD00030E0C901880F991F820F931F880F991F2B
:103AE000880F991F880F991F821B930BFC01E956C1
:103AF000FE4F40818F85282F30E0C901880F991F24
:103B0000820F931F880F991F880F991F880F991F85
:103B1000821B930BFC01E856FE4F20818889982F69
:103B20009170842F622F492F0E94880C8F85282F37
:103B300030E0C901880F991F820F931F880F991FCA
:103B4000880F991F880F991F821B930BFC01E9575F
:103B5000FE4F40818F85282F30E0C901880F991FC3
:103B6000820F931F880F991F880F991F880F991F25
:103B7000821B930BFC01E857FE4F9081842F692F25
:103B800041E00E94880C80E090E0A0E2B1E48B87E5
:103B90009C87AD87BE876B857C858D859E8520E063
:103BA00030E04AEF53E40E941F02DC01CB018F8317
:103BB0009887A987BA876F81788589859A8520E05B
:103BC00030E040E85FE30E94790388232CF481E031
:103BD00090E09E838D833FC06F81788589859A852B
:103BE00020E03FEF4FE757E40E94190318164CF509
:103BF0006B857C858D859E8520E030E040E251E438
:103C00000E941F02DC01CB01BC01CD010E944900D2
:103C1000DC01CB019E838D830FC082E390E09C8307
:103C20008B838B819C810197F1F79C838B838D81A2
:103C30009E8101979E838D838D819E81009769F778
:103C400014C06F81788589859A850E944900DC01BE
:103C5000CB019E838D838D819E819A838983898107
:103C60009A810197F1F79A8389838F85282F30E015
:103C7000C901880F991F820F931F880F991F880F02
:103C8000991F880F991F821B930BFC01E957FE4F68
:103C900040818F85282F30E0C901880F991F820F3E
:103CA000931F880F991F880F991F880F991F821BD8
:103CB000930BFC01E857FE4F9081842F692F40E061
:103CC0000E94880C60960FB6F894DEBF0FBECDBF81
:103CD000CF91DF910895DF93CF93CDB7DEB766978D
:103CE0000FB6F894DEBF0FBECDBF8A8B4B8B5C8BBB
:103CF0006D8B7E8B198A8A89882309F08AC18A890B
:103D0000282F30E0C901880F991F820F931F880F59
:103D1000991F880F991F880F991F821B930BFC0115
:103D2000ED57FE4F40818A89282F30E0C901880F66
:103D3000991F820F931F880F991F880F991F880F53
:103D4000991F821B930BFC01EC57FE4F9081842F2F
:103D5000692F41E00E94880C188A1F861E861D86E6
:103D60001C861B861A86198618861F8280E090E0C2
:103D7000A0E0B0E08B839C83AD83BE831A8219825E
:103D80006B897C898D899E890E944900DC01CB0169
:103D900098878F838F819885CC01A0E0B0E0BC012B
:103DA000CD010E94FD039B01AC016B897C898D894B
:103DB0009E890E94C101DC01CB018B839C83AD8372
:103DC000BE836B817C818D819E8120E030E44CE15B
:103DD00056E40E941F02DC01CB01BC01CD010E9410
:103DE0004900DC01CB019A8389836B897C898D89A9
:103DF0009E8920E030E040E050E00E947903882373
:103E0000B4F58A896DE20E94841B8B899C89AD89F7
:103E1000BE89B0588B8B9C8BAD8BBE8B28C08F819D
:103E200098852AE030E0B9010E94C82C8C878F85E4
:103E300098899C01220F331FC901880F991F880F91
:103E4000991F280F391F8C85882F90E0820F931FB0
:103E5000988B8F878F8198852AE030E0B9010E9486
:103E6000C82CCB0198878F838A858F5F8A878F8143
:103E700098850097A1F628C089819A812AE030E0D0
:103E8000B9010E94C82C8B878D859E859C01220FCD
:103E9000331FC901880F991F880F991F280F391FD9
:103EA0008B85882F90E0820F931F9E878D87898155
:103EB0009A812AE030E0B9010E94C82CCB019A8394
:103EC000898389858F5F898789819A810097A1F687
:103ED00049C08F8598892AE030E0B9010E94DC2C26
:103EE0008C878A89282F30E0C901880F991F820F9B
:103EF000931F880F991F880F991F880F991F821B86
:103F0000930BFC01ED57FE4F40818A89282F30E04A
:103F1000C901880F991F820F931F880F991F880F5F
:103F2000991F880F991F821B930BFC01EC57FE4FC2
:103F30009081842F692F41E00E94880C8C85982FF6
:103F4000905D8A89692F0E94841B8F8598892AE059
:103F500030E0B9010E94DC2CCB01988B8F878A85D9
:103F600081508A878A85882309F0B3CF8A896EE2D7
:103F70000E94841B49C08D859E852AE030E0B901EE
:103F80000E94DC2C8B878A89282F30E0C901880F9A
:103F9000991F820F931F880F991F880F991F880FF1
:103FA000991F821B930BFC01ED57FE4F40818A89BC
:103FB000282F30E0C901880F991F820F931F880FA7
:103FC000991F880F991F880F991F821B930BFC0163
:103FD000EC57FE4F9081842F692F41E00E94880C9E
:103FE0008B85982F905D8A89692F0E94841B8D850F
:103FF0009E852AE030E0B9010E94DC2CCB019E872F
:104000008D878985815089878985882309F0B3CF79
:1040100002C083E0898B898966960FB6F894DEBF6B
:104020000FBECDBFCF91DF910895DF93CF9300D026
:1040300000D00F92CDB7DEB79C838B831A82198292
:104040008B819C81009709F455C219824AC28981EB
:10405000482F50E0CA01880F991F9C01220F331F7F
:10406000220F331F220F331F820F931F9C01240F37
:10407000351F8B819C81FC01E20FF31F60818981D8
:10408000482F50E0CA01880F991F9C01220F331F4F
:10409000220F331F220F331F820F931F9C01240F07
:1040A000351F8B819C81FC01E20FF31F9181862FCC
:1040B000692F41E00E949C0B8981482F50E0CA0182
:1040C000880F991F9C01220F331F220F331F220FCD
:1040D000331F820F931F9C01240F351F8B819C81FE
:1040E000FC01E20FF31F62818981482F50E0CA0171
:1040F000880F991F9C01220F331F220F331F220F9D
:10410000331F820F931F9C01240F351F8B819C81CD
:10411000FC01E20FF31F9381862F692F41E00E947B
:104120009C0B8981482F50E0CA01880F991F9C0180
:10413000220F331F220F331F220F331F820F931FB3
:104140009C01240F351F8B819C81FC01E20FF31F22
:1041500064818981482F50E0CA01880F991F9C0112
:10416000220F331F220F331F220F331F820F931F83
:104170009C01240F351F8B819C81FC01E20FF31FF2
:104180009581862F692F41E00E949C0B8981482FE1
:1041900050E0CA01880F991F9C01220F331F220F84
:1041A000331F220F331F820F931F9C01240F351FD3
:1041B0008B819C81FC01E20FF31F66818981482F6E
:1041C00050E0CA01880F991F9C01220F331F220F54
:1041D000331F220F331F820F931F9C01240F351FA3
:1041E0008B819C81FC01E20FF31F9781862F692F41
:1041F00041E00E949C0B8981482F50E0CA01880F42
:10420000991F9C01220F331F220F331F220F331FD0
:10421000820F931F9C01240F351F8B819C81FC0111
:10422000E20FF31F60858981482F50E0CA01880F93
:10423000991F9C01220F331F220F331F220F331FA0
:10424000820F931F9C01240F351F8B819C81FC01E1
:10425000E20FF31F9185862F692F41E00E949C0B8E
:104260008981482F50E0CA01880F991F9C01220FB5
:10427000331F220F331F220F331F820F931F9C0106
:10428000240F351F8B819C81FC01E20FF31F628597
:104290008981482F50E0CA01880F991F9C01220F85
:1042A000331F220F331F220F331F820F931F9C01D6
:1042B000240F351F8B819C81FC01E20FF31F938536
:1042C000862F692F41E00E949C0B8981482F50E086
:1042D000CA01880F991F9C01220F331F220F331F21
:1042E000220F331F820F931F9C01240F351F8B81D8
:1042F0009C81FC01E20FF31F64858981482F50E007
:10430000CA01880F991F9C01220F331F220F331FF0
:10431000220F331F820F931F9C01240F351F8B81A7
:104320009C81FC01E20FF31F9585862F692F41E0E8
:104330000E949C0B8981482F50E0CA01880F991F69
:104340009C01220F331F220F331F220F331F820FB6
:10435000931F9C01240F351F8B819C81FC01E20F70
:10436000F31F8685843109F44FC08981482F50E0BE
:10437000CA01880F991F9C01220F331F220F331F80
:10438000220F331F820F931F9C01240F351F8B8137
:104390009C81FC01E20FF31F87858431A9F189819B
:1043A000482F50E0CA01880F991F9C01220F331F2C
:1043B000220F331F220F331F820F931F9C01240FE4
:1043C000351F8B819C81FC01E20FF31F668589817B
:1043D000482F50E0CA01880F991F9C01220F331FFC
:1043E000220F331F220F331F820F931F9C01240FB4
:1043F000351F8B819C81FC01E20FF31F9785862F6F
:10440000692F41E00E949C0B8981482F50E0CA012E
:10441000880F991F9C01220F331F220F331F220F79
:10442000331F820F931F9C01240F351F8B819C81AA
:10443000FC01E20FF31F8089843109F44FC08981A8
:10444000482F50E0CA01880F991F9C01220F331F8B
:10445000220F331F220F331F820F931F9C01240F43
:10446000351F8B819C81FC01E20FF31F8189843110
:10447000A9F18981482F50E0CA01880F991F9C013A
:10448000220F331F220F331F220F331F820F931F60
:104490009C01240F351F8B819C81FC01E20FF31FCF
:1044A00060898981482F50E0CA01880F991F9C01BB
:1044B000220F331F220F331F220F331F820F931F30
:1044C0009C01240F351F8B819C81FC01E20FF31F9F
:1044D0009189862F692F41E00E949C0B89818F5F13
:1044E00089838981823008F4B2CD81E08A838A8110
:1044F0008D8302C082E08D838D810F900F900F908D
:104500000F900F90CF91DF910895DF93CF93CDB7A8
:10451000DEB768970FB6F894DEBF0FBECDBF8A83B3
:104520006B8319828B818A3008F0A7C38A8182301D
:1045300008F0A3C38A81482F50E0CA01880F991F51
:104540009C01220F331F220F331F220F331F820FB4
:10455000931F840F951FFC01EA54FE4F8081813028
:1045600009F09AC18A81482F50E0CA01880F991F2B
:104570009C01220F331F220F331F220F331F820F84
:10458000931F840F951FFC01EC55FE4F60818A81BB
:10459000482F50E0CA01880F991F9C01220F331F3A
:1045A000220F331F220F331F820F931F840F951F7B
:1045B000FC01EB55FE4F20818B81882F90E0FC01A0
:1045C000E653FE4F8081982F9170862F622F492FDE
:1045D0000E94880C8A81482F50E0CA01880F991FD9
:1045E0009C01220F331F220F331F220F331F820F14
:1045F000931F840F951FFC01EA55FE4F60818A814D
:10460000482F50E0CA01880F991F9C01220F331FC9
:10461000220F331F220F331F820F931F840F951F0A
:10462000FC01E955FE4F20818B81882F90E0FC0131
:10463000E653FE4F80818695982F9170862F622FCA
:10464000492F0E94880C8A81482F50E0CA01880FA8
:10465000991F9C01220F331F220F331F220F331F7C
:10466000820F931F840F951FFC01E855FE4F608158
:104670008A81482F50E0CA01880F991F9C01220FA0
:10468000331F220F331F220F331F820F931F840FFC
:10469000951FFC01E755FE4F20818B81882F90E00C
:1046A000FC01E653FE4F808186958695982F917088
:1046B000862F622F492F0E94880C8A81482F50E054
:1046C000CA01880F991F9C01220F331F220F331F2D
:1046D000220F331F820F931F840F951FFC01E65595
:1046E000FE4F60818A81482F50E0CA01880F991FD0
:1046F0009C01220F331F220F331F220F331F820F03
:10470000931F840F951FFC01E555FE4F20818B817F
:10471000882F90E0FC01E653FE4F808186958695B8
:104720008695982F9170862F622F492F0E94880CB2
:104730008A81482F50E0CA01880F991F9C01220FDF
:10474000331F220F331F220F331F820F931F840F3B
:10475000951FFC01E455FE4F60818A81482F50E08F
:10476000CA01880F991F9C01220F331F220F331F8C
:10477000220F331F820F931F840F951FFC01E355F7
:10478000FE4F20818B81882F90E0FC01E653FE4F85
:10479000808182958F70982F9170862F622F492F7C
:1047A0000E94880C8A81482F50E0CA01880F991F07
:1047B0009C01220F331F220F331F220F331F820F42
:1047C000931F840F951FFC01E255FE4F60818A8183
:1047D000482F50E0CA01880F991F9C01220F331FF8
:1047E000220F331F220F331F820F931F840F951F39
:1047F000FC01E155FE4F20818B81882F90E0FC0168
:10480000E653FE4F8081829586958770982F917030
:10481000862F622F492F0E94880C8A81482F50E0F2
:10482000CA01880F991F9C01220F331F220F331FCB
:10483000220F331F820F931F840F951FFC01E05539
:10484000FE4F60818A81482F50E0CA01880F991F6E
:104850009C01220F331F220F331F220F331F820FA1
:10486000931F840F951FFC01EF54FE4F20818B8115
:10487000882F90E0FC01E653FE4F8081829586955B
:1048800086958370982F9170862F622F492F0E94F2
:10489000880C81E08983F3C18A81482F50E0CA01E6
:1048A000880F991F9C01220F331F220F331F220FE5
:1048B000331F820F931F840F951FFC01EA54FE4F94
:1048C0008081823009F0DBC18A81482F50E0CA0123
:1048D000880F991F9C01220F331F220F331F220FB5
:1048E000331F820F931F840F951FFC01EC55FE4F61
:1048F0008081888F8A81482F50E0CA01880F991FD4
:104900009C01220F331F220F331F220F331F820FF0
:10491000931F840F951FFC01EB55FE4F80818F8BF9
:104920008B81882F90E0FC01E653FE4F8081882F19
:1049300090E0817090701E8A009711F481E08E8B58
:10494000888D6F894E890E94880C8A81482F50E09B
:10495000CA01880F991F9C01220F331F220F331F9A
:10496000220F331F820F931F840F951FFC01EA55FE
:10497000FE4F80818D8B8A81482F50E0CA01880FBD
:10498000991F9C01220F331F220F331F220F331F49
:10499000820F931F840F951FFC01E955FE4F808104
:1049A0008C8B8B81882F90E0FC01E653FE4F808139
:1049B0008695882F90E0817090701B8A009711F483
:1049C00081E08B8B8D896C894B890E94880C8A8150
:1049D000482F50E0CA01880F991F9C01220F331FF6
:1049E000220F331F220F331F820F931F840F951F37
:1049F000FC01E855FE4F80818A8B8A81482F50E068
:104A0000CA01880F991F9C01220F331F220F331FE9
:104A1000220F331F820F931F840F951FFC01E75550
:104A2000FE4F8081898B8B81882F90E0FC01E653BB
:104A3000FE4F808186958695882F90E081709070DA
:104A4000188A009711F481E0888B8A8969894889DE
:104A50000E94880C8A81482F50E0CA01880F991F54
:104A60009C01220F331F220F331F220F331F820F8F
:104A7000931F840F951FFC01E655FE4F80818F87A1
:104A80008A81482F50E0CA01880F991F9C01220F8C
:104A9000331F220F331F220F331F820F931F840FE8
:104AA000951FFC01E555FE4F80818E878B81882FF5
:104AB00090E0FC01E653FE4F8081869586958695B1
:104AC000882F90E0817090701D86009711F481E02E
:104AD0008D878F856E854D850E94880C8A81482F31
:104AE00050E0CA01880F991F9C01220F331F220F2B
:104AF000331F220F331F820F931F840F951FFC015A
:104B0000E455FE4F80818C878A81482F50E0CA018E
:104B1000880F991F9C01220F331F220F331F220F72
:104B2000331F820F931F840F951FFC01E355FE4F27
:104B300080818B878B81882F90E0FC01E653FE4FAC
:104B4000808182958F70882F90E0817090701A8696
:104B5000009711F481E08A878C856B854A850E94D5
:104B6000880C8A81482F50E0CA01880F991F9C0148
:104B7000220F331F220F331F220F331F820F931F69
:104B8000840F951FFC01E255FE4F808189878A8141
:104B9000482F50E0CA01880F991F9C01220F331F34
:104BA000220F331F220F331F820F931F840F951F75
:104BB000FC01E155FE4F808188878B81882F90E032
:104BC000FC01E653FE4F8081829586958770882F81
:104BD00090E0817090701F82009711F481E08F83C4
:104BE000898568854F810E94880C8A81482F50E012
:104BF000CA01880F991F9C01220F331F220F331FF8
:104C0000220F331F820F931F840F951FFC01E05565
:104C1000FE4F80818E838A81482F50E0CA01880F21
:104C2000991F9C01220F331F220F331F220F331FA6
:104C3000820F931F840F951FFC01EF54FE4F80815C
:104C40008D838B81882F90E0FC01E653FE4F80819D
:104C50008295869586958370882F90E081709070FC
:104C60001C82009711F481E08C838E816D814C81D0
:104C70000E94880C81E0898302C083E08983898156
:104C800068960FB6F894DEBF0FBECDBFCF91DF910F
:104C90000895DF93CF9300D0CDB7DEB78A83198212
:104CA0008A81823008F0C8C08A81482F50E0CA014A
:104CB000880F991F9C01220F331F220F331F220FD1
:104CC000331F820F931F840F951FFC01EE54FE4F7C
:104CD0008081843109F4ADC08A81482F50E0CA0137
:104CE000880F991F9C01220F331F220F331F220FA1
:104CF000331F820F931F840F951FFC01ED54FE4F4D
:104D00008081843109F495C08A81482F50E0CA011E
:104D1000880F991F9C01220F331F220F331F220F70
:104D2000331F820F931F840F951FFC01EA54FE4F1F
:104D30008081813091F58A81482F50E0CA01880F27
:104D4000991F9C01220F331F220F331F220F331F85
:104D5000820F931F840F951FFC01EE54FE4F60815C
:104D60008A81482F50E0CA01880F991F9C01220FA9
:104D7000331F220F331F220F331F820F931F840F05
:104D8000951FFC01ED54FE4F9081862F692F41E065
:104D90000E94880C81E0898351C08A81482F50E0AD
:104DA000CA01880F991F9C01220F331F220F331F46
:104DB000220F331F820F931F840F951FFC01EA54AB
:104DC000FE4F8081823091F58A81482F50E0CA01E0
:104DD000880F991F9C01220F331F220F331F220FB0
:104DE000331F820F931F840F951FFC01EE54FE4F5B
:104DF00060818A81482F50E0CA01880F991F9C0169
:104E0000220F331F220F331F220F331F820F931FD6
:104E1000840F951FFC01ED54FE4F9081862F692F62
:104E200040E00E94880C81E0898308C084E0898387
:104E300005C084E0898302C083E0898389810F9063
:104E40000F90CF91DF910895DF93CF9300D0CDB72E
:104E5000DEB78A8319828A81823008F0C8C08A81CD
:104E6000482F50E0CA01880F991F9C01220F331F61
:104E7000220F331F220F331F820F931F840F951FA2
:104E8000FC01EE54FE4F8081843109F4ADC08A816B
:104E9000482F50E0CA01880F991F9C01220F331F31
:104EA000220F331F220F331F820F931F840F951F72
:104EB000FC01ED54FE4F8081843109F495C08A8154
:104EC000482F50E0CA01880F991F9C01220F331F01
:104ED000220F331F220F331F820F931F840F951F42
:104EE000FC01EA54FE4F8081813091F58A81482F80
:104EF00050E0CA01880F991F9C01220F331F220F17
:104F0000331F220F331F820F931F840F951FFC0145
:104F1000EE54FE4F60818A81482F50E0CA01880F0D
:104F2000991F9C01220F331F220F331F220F331FA3
:104F3000820F931F840F951FFC01ED54FE4F90814B
:104F4000862F692F40E00E94880C81E0898351C040
:104F50008A81482F50E0CA01880F991F9C01220FB7
:104F6000331F220F331F220F331F820F931F840F13
:104F7000951FFC01EA54FE4F8081823091F58A81B1
:104F8000482F50E0CA01880F991F9C01220F331F40
:104F9000220F331F220F331F820F931F840F951F81
:104FA000FC01EE54FE4F60818A81482F50E0CA0117
:104FB000880F991F9C01220F331F220F331F220FCE
:104FC000331F820F931F840F951FFC01ED54FE4F7A
:104FD0009081862F692F41E00E94880C81E08983AF
:104FE00008C084E0898305C084E0898302C083E02F
:104FF000898389810F900F90CF91DF910895DF937E
:10500000CF9300D0CDB7DEB78A8319828A818230F0
:1050100008F0C8C08A81482F50E0CA01880F991F44
:105020009C01220F331F220F331F220F331F820FC9
:10503000931F840F951FFC01EC54FE4F8081843137
:1050400009F4ADC08A81482F50E0CA01880F991F2A
:105050009C01220F331F220F331F220F331F820F99
:10506000931F840F951FFC01EB54FE4F8081843108
:1050700009F495C08A81482F50E0CA01880F991F12
:105080009C01220F331F220F331F220F331F820F69
:10509000931F840F951FFC01EA54FE4F80818130DD
:1050A00091F58A81482F50E0CA01880F991F9C0111
:1050B000220F331F220F331F220F331F820F931F24
:1050C000840F951FFC01EC54FE4F60818A81482FAC
:1050D00050E0CA01880F991F9C01220F331F220F35
:1050E000331F220F331F820F931F840F951FFC0164
:1050F000EB54FE4F9081862F692F41E00E94880C6F
:1051000081E0898351C08A81482F50E0CA01880F0D
:10511000991F9C01220F331F220F331F220F331FB1
:10512000820F931F840F951FFC01EA54FE4F80816C
:10513000823091F58A81482F50E0CA01880F991F6B
:105140009C01220F331F220F331F220F331F820FA8
:10515000931F840F951FFC01EC54FE4F60818A81E0
:10516000482F50E0CA01880F991F9C01220F331F5E
:10517000220F331F220F331F820F931F840F951F9F
:10518000FC01EB54FE4F9081862F692F40E00E9476
:10519000880C81E0898308C084E0898305C084E0AD
:1051A000898302C083E0898389810F900F90CF911A
:1051B000DF910895DF93CF9300D0CDB7DEB78A8318
:1051C00019828A81823008F0C8C08A81482F50E055
:1051D000CA01880F991F9C01220F331F220F331F12
:1051E000220F331F820F931F840F951FFC01EC5475
:1051F000FE4F8081843109F4ADC08A81482F50E090
:10520000CA01880F991F9C01220F331F220F331FE1
:10521000220F331F820F931F840F951FFC01EB5445
:10522000FE4F8081843109F495C08A81482F50E077
:10523000CA01880F991F9C01220F331F220F331FB1
:10524000220F331F820F931F840F951FFC01EA5416
:10525000FE4F8081813091F58A81482F50E0CA014C
:10526000880F991F9C01220F331F220F331F220F1B
:10527000331F820F931F840F951FFC01EC54FE4FC8
:1052800060818A81482F50E0CA01880F991F9C01D4
:10529000220F331F220F331F220F331F820F931F42
:1052A000840F951FFC01EB54FE4F9081862F692FD0
:1052B00040E00E94880C81E0898351C08A81482F98
:1052C00050E0CA01880F991F9C01220F331F220F43
:1052D000331F220F331F820F931F840F951FFC0172
:1052E000EA54FE4F8081823091F58A81482F50E048
:1052F000CA01880F991F9C01220F331F220F331FF1
:10530000220F331F820F931F840F951FFC01EC5453
:10531000FE4F60818A81482F50E0CA01880F991F93
:105320009C01220F331F220F331F220F331F820FC6
:10533000931F840F951FFC01EB54FE4F9081862F25
:10534000692F41E00E94880C81E0898308C084E0D5
:10535000898305C084E0898302C083E089838981D1
:105360000F900F90CF91DF910895DF93CF9300D0EE
:10537000CDB7DEB78A8319828A81823008F0CBC22A
:105380008A81482F50E0CA01880F991F9C01220F83
:10539000331F220F331F220F331F820F931F840FDF
:1053A000951FFC01EA54FE4F8081813009F04CC109
:1053B0008A81482F50E0CA01880F991F9C01220F53
:1053C000331F220F331F220F331F820F931F840FAF
:1053D000951FFC01EC55FE4F60818A81482F50E0FB
:1053E000CA01880F991F9C01220F331F220F331F00
:1053F000220F331F820F931F840F951FFC01EB5563
:10540000FE4F9081862F692F40E00E94880C8A8190
:10541000482F50E0CA01880F991F9C01220F331FAB
:10542000220F331F220F331F820F931F840F951FEC
:10543000FC01EA55FE4F60818A81482F50E0CA0185
:10544000880F991F9C01220F331F220F331F220F39
:10545000331F820F931F840F951FFC01E955FE4FE8
:105460009081862F692F40E00E94880C8A81482F06
:1054700050E0CA01880F991F9C01220F331F220F91
:10548000331F220F331F820F931F840F951FFC01C0
:10549000E855FE4F60818A81482F50E0CA01880F8D
:1054A000991F9C01220F331F220F331F220F331F1E
:1054B000820F931F840F951FFC01E755FE4F9081CB
:1054C000862F692F40E00E94880C8A81482F50E087
:1054D000CA01880F991F9C01220F331F220F331F0F
:1054E000220F331F820F931F840F951FFC01E65577
:1054F000FE4F60818A81482F50E0CA01880F991FB2
:105500009C01220F331F220F331F220F331F820FE4
:10551000931F840F951FFC01E555FE4F9081862F48
:10552000692F40E00E94880C8A81482F50E0CA0110
:10553000880F991F9C01220F331F220F331F220F48
:10554000331F820F931F840F951FFC01E455FE4FFC
:1055500060818A81482F50E0CA01880F991F9C0101
:10556000220F331F220F331F220F331F820F931F6F
:10557000840F951FFC01E355FE4F9081862F692F04
:1055800040E00E94880C8A81482F50E0CA01880FB1
:10559000991F9C01220F331F220F331F220F331F2D
:1055A000820F931F840F951FFC01E255FE4F60810F
:1055B0008A81482F50E0CA01880F991F9C01220F51
:1055C000331F220F331F220F331F820F931F840FAD
:1055D000951FFC01E155FE4F9081862F692F40E019
:1055E0000E94880C8A81482F50E0CA01880F991FB9
:1055F0009C01220F331F220F331F220F331F820FF4
:10560000931F840F951FFC01E055FE4F60818A8136
:10561000482F50E0CA01880F991F9C01220F331FA9
:10562000220F331F220F331F820F931F840F951FEA
:10563000FC01EF54FE4F9081862F692F40E00E94BD
:10564000880C81E0898369C18A81482F50E0CA01B2
:10565000880F991F9C01220F331F220F331F220F27
:10566000331F820F931F840F951FFC01EA54FE4FD6
:105670008081823009F04CC18A81482F50E0CA01F4
:10568000880F991F9C01220F331F220F331F220FF7
:10569000331F820F931F840F951FFC01EC55FE4FA3
:1056A00060818A81482F50E0CA01880F991F9C01B0
:1056B000220F331F220F331F220F331F820F931F1E
:1056C000840F951FFC01EB55FE4F9081862F692FAB
:1056D00041E00E94880C8A81482F50E0CA01880F5F
:1056E000991F9C01220F331F220F331F220F331FDC
:1056F000820F931F840F951FFC01EA55FE4F6081B6
:105700008A81482F50E0CA01880F991F9C01220FFF
:10571000331F220F331F220F331F820F931F840F5B
:10572000951FFC01E955FE4F9081862F692F41E0BE
:105730000E94880C8A81482F50E0CA01880F991F67
:105740009C01220F331F220F331F220F331F820FA2
:10575000931F840F951FFC01E855FE4F60818A81DD
:10576000482F50E0CA01880F991F9C01220F331F58
:10577000220F331F220F331F820F931F840F951F99
:10578000FC01E755FE4F9081862F692F41E00E9472
:10579000880C8A81482F50E0CA01880F991F9C010C
:1057A000220F331F220F331F220F331F820F931F2D
:1057B000840F951FFC01E655FE4F60818A81482FBA
:1057C00050E0CA01880F991F9C01220F331F220F3E
:1057D000331F220F331F820F931F840F951FFC016D
:1057E000E555FE4F9081862F692F41E00E94880C7D
:1057F0008A81482F50E0CA01880F991F9C01220F0F
:10580000331F220F331F220F331F820F931F840F6A
:10581000951FFC01E455FE4F60818A81482F50E0BE
:10582000CA01880F991F9C01220F331F220F331FBB
:10583000220F331F820F931F840F951FFC01E35526
:10584000FE4F9081862F692F41E00E94880C8A814B
:10585000482F50E0CA01880F991F9C01220F331F67
:10586000220F331F220F331F820F931F840F951FA8
:10587000FC01E255FE4F60818A81482F50E0CA0149
:10588000880F991F9C01220F331F220F331F220FF5
:10589000331F820F931F840F951FFC01E155FE4FAC
:1058A0009081862F692F41E00E94880C8A81482FC1
:1058B00050E0CA01880F991F9C01220F331F220F4D
:1058C000331F220F331F820F931F840F951FFC017C
:1058D000E055FE4F60818A81482F50E0CA01880F51
:1058E000991F9C01220F331F220F331F220F331FDA
:1058F000820F931F840F951FFC01EF54FE4F908180
:10590000862F692F41E00E94880C81E0898305C0C1
:1059100084E0898302C083E0898389810F900F909E
:10592000CF91DF910895DF93CF93CDB7DEB70E947B
:10593000230A88E691E00E94950680E062E041E05B
:105940000E949C0B80E062E041E00E94880C83E0B2
:1059500063E040E00E949C0B83E062E041E00E9433
:10596000880C88E691E00E9495060E946B068DEBFC
:105970009CE261E00E945D09FFCFDF93CF93CDB73A
:10598000DEB780E062E00E94740DCF91DF91089550
:10599000AA1BBB1B51E107C0AA1FBB1FA617B70755
:1059A00010F0A61BB70B881F991F5A95A9F7809571
:1059B0009095BC01CD01089597FB092E07260AD0CA
:1059C00077FD04D0E5DF06D000201AF470956195CC
:1059D0007F4F0895F6F7909581959F4F08952F92E8
:1059E0003F924F925F926F927F928F929F92AF926F
:1059F000BF92CF92DF92EF92FF920F931F93CF93BC
:105A0000DF93CDB7DEB7CA1BDB0B0FB6F894DEBF52
:105A10000FBECDBF09942A88398848885F846E8478
:105A20007D848C849B84AA84B984C884DF80EE80C2
:105A3000FD800C811B81AA81B981CE0FD11D0FB6CB
:105A4000F894DEBF0FBECDBFED010895F894FFCFEF
:105A50000000000000000000000102020303030335
:105A600004040404040404040505050505050505EE
:105A700005050505050505050606060606060606CE
:105A800006060606060606060606060606060606B6
:105A9000060606060606060607070707070707079E
:105AA0000707070707070707070707070707070786
:105AB0000707070707070707070707070707070776
:105AC0000707070707070707070707070707070766
:105AD000070707070707070708080808080808084E
